:060000000A128A110C280F
:10000800FE00030EF1000A08F2000A128A11BD2B45
:100018000A128A110F2883136230FD000530FE0092
:100028001630FF00503084000A128A1107250A1280
:100038008A112030840039300A128A114C250A129C
:100048008A11F801F901FA0183010A128A11CD2CEB
:100058002E3083120313CB004B08C3002B080A125F
:100068008A11FA230A128A11831203132F08C40073
:100078002E08C3003630CB004B08C5003730CC0003
:100088004C08C6003830CD004D08C7000A128A1146
:1000980093220A128A112C3083120313CB004B08C7
:1000A800C3002A080A128A11FA230A128A11831233
:1000B80003132D08C4002C08C3003330CB004B08B1
:1000C800C5003430CC004C08C6003530CD004D0892
:1000D800C7000A128A1193220A128A118312031383
:1000E8002908CB00CC014B08C3004C08C4003030B1
:1000F800CD004D08C5003130CE004E08C600323064
:10010800CF004F08C7000A128A1193220A128A11D7
:100118008312031336080A128A117E230A128A11DF
:1001280083120313CB004B08A80037080A128A1160
:100138007E230A128A1183120313CB004B08F8009E
:1001480038080A128A117E230A128A1183120313AD
:10015800CB004B08F90033080A128A117E230A12D1
:100168008A1183120313CB004B08A50034080A1226
:100178008A117E230A128A1183120313CB004B08BB
:10018800A60035080A128A117E230A128A118312E0
:100198000313CB004B08A70030080A128A117E23EC
:1001A8000A128A1183120313CB004B08A2003108EC
:1001B8000A128A117E230A128A1183120313CB00B2
:1001C8004B08A30032080A128A117E230A128A11E8
:1001D80083120313CB004B08A4000800F50100307C
:1001E8000A128A1127240A128A1150300A128A1117
:1001F80054240A128A11F50101300A128A1127249F
:100208000A128A1179080A128A1128250A128A11F3
:100218002E300A128A1128250A128A1178080A1221
:100228008A1128250A128A118312031328080A1230
:100238008A1128250A128A1176300A128A1128256D
:100248000A128A1120300A128A1128250A128A11E4
:100258008312031327080A128A1128250A128A1101
:100268002E300A128A1128250A128A1183120313C2
:1002780026080A128A1128250A128A1183120313E2
:1002880025080A128A1128250A128A1176300A12BC
:100298008A1128250A128A1120300A128A11282563
:1002A8000A128A1120300A128A1128250A128A1184
:1002B8008312031324080A128A1128250A128A11A4
:1002C8008312031323080A128A1128250A128A1195
:1002D8008312031322080A128A1128250A128A1186
:1002E800080083120313C001BC1F7B297C298329C2
:1002F800BB09BC09BB0A0319BC0AC001C00ABE1F5E
:10030800862987299029BD09BE09BD0A0319BE0A95
:100318000130F7007708C006C101C2013B083C0460
:10032800031997299829CF29BF01BF0AA6290130A7
:100338000310BB0DBC0DFF3E031D9C290130F700C7
:100348007708BF07BC1FA929AA299B2901300310D8
:10035800C10DC20DFF3E031DAB293C083E02031D23
:10036800B7293B083D02031CBA29BB29C2293B080F
:10037800BD023C08031CBE03BE0241140130031039
:10038800BC0CBB0CFF3E031DC3290130BF02031D7B
:10039800CE29CF29AA2940080319D329D429D92934
:1003A800C109C209C10A0319C20A4208BC004108AE
:1003B800BB00080083120313BA01F61FE429E529DC
:1003C800EC29F509F609F50A0319F60ABA01BA0A79
:1003D800F41FEF29F029F529F309F409F30A0319A1
:1003E800F40A730874040319FA29FB292A2AB901A3
:1003F800B90A092A01300310F30DF40DFF3E031D5D
:10040800FF290130F7007708B907F41F0C2A0D2AD5
:10041800FE2974087602031D132A73087502031C4B
:10042800162A172A1D2A7308F5027408031CF603F6
:10043800F60201300310F40CF30CFF3E031D1E2AD4
:100448000130B902031D292A2A2A0D2A3A0803195C
:100458002E2A2F2A342AF509F609F50A0319F60A6D
:100468007608F4007508F30008008316031788015E
:1004780028308900831603138501303086008801EF
:100488008901831203138501860188018901831676
:1004980003130F088F3940388F000F14831203138A
:1004A800B901B90ABA01BA0A1930F4007408BB00D4
:1004B800BC01BD01BD0ABE01BF01BF0AC001C00A1F
:1004C800C10100300A128A1136230A128A118B17C9
:1004D8000B178B110B10831603130C1083120313C5
:1004E8000C10831603130C17831203130C138C12AE
:1004F800831603138C169F139F121F128312031364
:100508001F083F3940389F001F08C3392C389F0007
:100518001F140330F400F40B8F2A922A08000A30C3
:10052800F3000030F400831203134408F600430874
:10053800F5000A128A11DE210A128A117308831241
:100548000313C800450884004808831380000A3054
:10055800BB000030BC004408BE004308BD000A12BE
:100568008A1175210A128A11831203133C08CA00E2
:100578003B08C9000A30F3000030F4004A08F600CE
:100588004908F5000A128A11DE210A128A11730835
:1005980083120313C80046088400480883138000A8
:1005A8000A30BB000030BC004A08BE004908BD0044
:1005B8000A128A1175210A128A11831203133B0841
:1005C800C800470884004808831380000800831285
:1005D80003138613091085010630F6003030F50044
:1005E800F50BF42AF60BF42A000030300A128A11AF
:1005F80034250A128A11F930F500022BF50B012B6C
:10060800052B062B30300A128A1134250A128A115A
:100618001030F500F50B0E2B000030300A128A114D
:1006280034250A128A112130F6007630F500F50BD0
:100638001B2BF60B1B2B000038300A128A113425AD
:100648000A128A112130F6007630F500F50B2A2BB4
:10065800F60B2A2B00000C300A128A1134250A12D4
:100668008A110800F300730C83160313031C181275
:100678000318181683120313390C83160313031C6B
:10068800181103181815831203133A0C831603174D
:10069800031C871103188715831203133B0883165D
:1006A80003139900831203133C08831603139A005B
:1006B800831203133D0C031C9813031898173E0C60
:1006C800031C1813031818173F0C031C18120318DF
:1006D8001816400C83160313031C98120318981657
:1006E80083120313410C83160313031C18130318F6
:1006F80018170800F500942B3030BC2B3130BC2B78
:100708003230BC2B3330BC2B3430BC2B3530BC2BB7
:100718003630BC2B3730BC2B3830BC2B3930BC2B97
:100728007508F300F4017408003A03199C2BBC2BDC
:100738007308003A0319802B013A0319822B033AF4
:100748000319842B013A0319862B073A0319882BBE
:10075800013A03198A2B033A03198C2B013A03191E
:100768008E2B0F3A0319902B013A0319922BBC2BAD
:100778000800831203130C1FC22BC32BD72B1F0C8B
:10078800F000700C0F390B3A031DCB2BCC2BD12B5F
:100798001E08F0007008AB00D52B1E08F00070088A
:1007A800AA000C13F32B8C1EDA2BDB2BF32B1A0865
:1007B800F0007008FA002B307A06031DE42BE52BB5
:1007C800EA2B0130F0007008A907F32B2D307A06C8
:1007D800031DEF2BF02BF32B0130A902F32B72082A
:1007E8008A00710E8300FE0E7E0E09008312031329
:1007F800C6003330BB000030BC004608C400C50149
:100808004408F3004508F4006430F5000030F600B1
:100818000A128A1181240A128A1174088312031396
:10082800BE007308BD000A128A1175210A128A11C6
:1008380083120313430884003B0883138000840A4F
:100848003C088000080083120313B900432C750884
:10085800803E0A128A1134250A128A11532C75080F
:10086800C03E0A128A1134250A128A11532C7508BF
:10087800803E0A128A1134250A128A11532C39082B
:10088800F600F7017708003A03194B2C3B2C760841
:10089800003A03192B2C013A0319332C3B2C08007E
:1008A80083120313BB00BC016B2C3C083B07B90047
:1008B80039088400831300080A128A1128250A12AD
:1008C8008A11013083120313B9003908BC073B08A9
:1008D8000A128A11EA240A128A11831203133C08A5
:1008E800B900BA0174083A02031D7C2C7308390256
:1008F800031C7F2C802C592C080083120313B90188
:10090800BA01731C882C892C912C75088312031347
:10091800B9070318BA0A7608BA0701300310F50DAB
:10092800F60DFF3E031D922C01300310F40CF30C5E
:10093800FF3E031D992C73087404031DA42CA52CD9
:10094800852C831203133A08F4003908F3000800D1
:10095800831203139F18B12CB22CCC2C1F0CF3005C
:10096800730C0F390B3A031DBA2CBB2CC02C1F0873
:10097800C33934389F00C42C1F08C3392C389F0052
:100988000330F300F30BC62CC92C831203139F14F6
:1009980008000A128A1139220A128A110A128A11C7
:1009A800EB220A128A110A128A11F2200A128A11FB
:1009B8000A128A11AC240A128A110A128A112C20EE
:1009C8000A128A11D72C0A128A110C28F600760806
:1009D800F5007508F700F42C0130F5007508F707E5
:1009E8007708840083130008031DFB2CFC2CF02CD3
:1009F80076087702F300F401F31BF40308007E087D
:100A08008A007F0882000A128A1103250A128A11B5
:100A18008000840A04087D0603190034FF0A0319BC
:100A2800FE0A072D2034533430343A34203420342D
:100A38002034533431343A3420342034203453347D
:100A480032343A3420340034F40083120313091486
:100A5800740885000A128A1140250A128A110800B2
:100A6800F400831203130910740885000A128A110E
:100A780040250A128A1108008312031386172930A9
:100A8800F300F30B452D00008312031386130800AF
:100A980064008001840A04060319003404064D2DFD
:04400E00D420FF3F7C
:00000001FF
